{
  "contractName": "Eduvate",
  "abi": [
    {
      "inputs": [],
      "stateMutability": "nonpayable",
      "type": "constructor"
    },
    {
      "anonymous": false,
      "inputs": [
        {
          "indexed": false,
          "internalType": "address",
          "name": "userAddress",
          "type": "address"
        },
        {
          "indexed": false,
          "internalType": "address",
          "name": "systemAddress",
          "type": "address"
        },
        {
          "indexed": false,
          "internalType": "uint256",
          "name": "queryId",
          "type": "uint256"
        },
        {
          "indexed": false,
          "internalType": "uint256",
          "name": "commentId",
          "type": "uint256"
        }
      ],
      "name": "commentTransaction",
      "type": "event"
    },
    {
      "anonymous": false,
      "inputs": [
        {
          "indexed": false,
          "internalType": "address",
          "name": "userAddress",
          "type": "address"
        },
        {
          "indexed": false,
          "internalType": "address",
          "name": "systemAddress",
          "type": "address"
        },
        {
          "indexed": false,
          "internalType": "uint256",
          "name": "queryId",
          "type": "uint256"
        }
      ],
      "name": "queryTransaction",
      "type": "event"
    },
    {
      "anonymous": false,
      "inputs": [
        {
          "indexed": false,
          "internalType": "address",
          "name": "studentAddress",
          "type": "address"
        },
        {
          "indexed": false,
          "internalType": "enum Eduvate.Performance",
          "name": "performance",
          "type": "uint8"
        },
        {
          "indexed": false,
          "internalType": "uint256",
          "name": "courseValue",
          "type": "uint256"
        },
        {
          "indexed": false,
          "internalType": "uint256",
          "name": "returnValue",
          "type": "uint256"
        },
        {
          "indexed": false,
          "internalType": "bool",
          "name": "isPossible",
          "type": "bool"
        },
        {
          "indexed": false,
          "internalType": "bool",
          "name": "transferDone",
          "type": "bool"
        }
      ],
      "name": "studentPerformanceEvent",
      "type": "event"
    },
    {
      "inputs": [],
      "name": "systemAddress",
      "outputs": [
        {
          "internalType": "address payable",
          "name": "",
          "type": "address"
        }
      ],
      "stateMutability": "view",
      "type": "function",
      "constant": true
    },
    {
      "inputs": [
        {
          "internalType": "enum Eduvate.Performance",
          "name": "stuPerformance",
          "type": "uint8"
        },
        {
          "internalType": "address",
          "name": "studentAddress",
          "type": "address"
        },
        {
          "internalType": "uint256",
          "name": "courseValue",
          "type": "uint256"
        }
      ],
      "name": "studentCourseGrade",
      "outputs": [
        {
          "internalType": "bool",
          "name": "",
          "type": "bool"
        }
      ],
      "stateMutability": "payable",
      "type": "function",
      "payable": true
    },
    {
      "inputs": [],
      "name": "getSystemAddress",
      "outputs": [
        {
          "internalType": "address",
          "name": "",
          "type": "address"
        }
      ],
      "stateMutability": "view",
      "type": "function",
      "constant": true
    },
    {
      "inputs": [
        {
          "internalType": "uint256",
          "name": "queryId",
          "type": "uint256"
        }
      ],
      "name": "registerQuery",
      "outputs": [
        {
          "internalType": "bool",
          "name": "",
          "type": "bool"
        }
      ],
      "stateMutability": "payable",
      "type": "function",
      "payable": true
    },
    {
      "inputs": [],
      "name": "getBalance",
      "outputs": [
        {
          "internalType": "uint256",
          "name": "",
          "type": "uint256"
        }
      ],
      "stateMutability": "view",
      "type": "function",
      "constant": true
    },
    {
      "inputs": [
        {
          "internalType": "uint256",
          "name": "queryId",
          "type": "uint256"
        },
        {
          "internalType": "uint256",
          "name": "commentId",
          "type": "uint256"
        }
      ],
      "name": "updateVote",
      "outputs": [],
      "stateMutability": "nonpayable",
      "type": "function"
    },
    {
      "inputs": [
        {
          "internalType": "uint256",
          "name": "queryId",
          "type": "uint256"
        },
        {
          "internalType": "uint256",
          "name": "commentId",
          "type": "uint256"
        }
      ],
      "name": "addComment",
      "outputs": [],
      "stateMutability": "nonpayable",
      "type": "function"
    },
    {
      "inputs": [],
      "name": "closeContract",
      "outputs": [],
      "stateMutability": "nonpayable",
      "type": "function"
    },
    {
      "inputs": [],
      "name": "register",
      "outputs": [
        {
          "internalType": "bool",
          "name": "",
          "type": "bool"
        }
      ],
      "stateMutability": "payable",
      "type": "function",
      "payable": true
    }
  ],
  "bytecode": "0x608060405234801561001057600080fd5b50336000806101000a81548173ffffffffffffffffffffffffffffffffffffffff021916908373ffffffffffffffffffffffffffffffffffffffff160217905550610c7b806100606000396000f3fe6080604052600436106100865760003560e01c8063610be65411610059578063610be6541461012d57806371275c4a146101445780638dd3848f1461016d578063d3e848f114610198578063edcc6e19146101c357610086565b806312065fe01461008b57806314f8525c146100b65780631aa3a008146100df5780632e15bbd9146100fd575b600080fd5b34801561009757600080fd5b506100a06101f3565b6040516100ad919061095c565b60405180910390f35b3480156100c257600080fd5b506100dd60048036038101906100d8919061075b565b6101fb565b005b6100e7610229565b6040516100f49190610941565b60405180910390f35b610117600480360381019061011291906106db565b61028e565b6040516101249190610941565b60405180910390f35b34801561013957600080fd5b50610142610402565b005b34801561015057600080fd5b5061016b6004803603810190610166919061075b565b61043b565b005b34801561017957600080fd5b50610182610497565b60405161018f919061083c565b60405180910390f35b3480156101a457600080fd5b506101ad6104c0565b6040516101ba9190610857565b60405180910390f35b6101dd60048036038101906101d8919061072e565b6104e4565b6040516101ea9190610941565b60405180910390f35b600047905090565b6000600160008481526020019081526020016000206000838152602001908152602001600020819055505050565b60007f1ede902713ab9b61c4c6ca8e06a239d5140dac7253337e6eed1336e020506ea63360008054906101000a900473ffffffffffffffffffffffffffffffffffffffff16600060405161027f93929190610872565b60405180910390a16001905090565b60008060009054906101000a900473ffffffffffffffffffffffffffffffffffffffff1673ffffffffffffffffffffffffffffffffffffffff163373ffffffffffffffffffffffffffffffffffffffff16146102e957600080fd5b6000806000600a85600189600381111561030657610305610bbc565b5b6103109190610a63565b61031a9190610a09565b61032491906109d8565b90508047106103b45760019250600081146103ae5760008673ffffffffffffffffffffffffffffffffffffffff168260405161035f90610827565b60006040518083038185875af1925050503d806000811461039c576040519150601f19603f3d011682016040523d82523d6000602084013e6103a1565b606091505b50509050809250506103b3565b600091505b5b7f5b1bf34b392ab683d969d09e2409f1ea221e224f534c2785492b1304cee7d5f88688878487876040516103ed969594939291906108e0565b60405180910390a18193505050509392505050565b60008054906101000a900473ffffffffffffffffffffffffffffffffffffffff1673ffffffffffffffffffffffffffffffffffffffff16ff5b600180600084815260200190815260200160002060008381526020019081526020016000205461046b9190610982565b600160008481526020019081526020016000206000838152602001908152602001600020819055505050565b60008060009054906101000a900473ffffffffffffffffffffffffffffffffffffffff16905090565b60008054906101000a900473ffffffffffffffffffffffffffffffffffffffff1681565b6000343373ffffffffffffffffffffffffffffffffffffffff16311161050957600080fd5b7f1ede902713ab9b61c4c6ca8e06a239d5140dac7253337e6eed1336e020506ea633303460405161053c939291906108a9565b60405180910390a160003073ffffffffffffffffffffffffffffffffffffffff163460405161056a90610827565b60006040518083038185875af1925050503d80600081146105a7576040519150601f19603f3d011682016040523d82523d6000602084013e6105ac565b606091505b505090506105b861066c565b33816000019073ffffffffffffffffffffffffffffffffffffffff16908173ffffffffffffffffffffffffffffffffffffffff168152505034816020018181525050806002600086815260200190815260200160002060008201518160000160006101000a81548173ffffffffffffffffffffffffffffffffffffffff021916908373ffffffffffffffffffffffffffffffffffffffff160217905550602082015181600101559050508192505050919050565b6040518060400160405280600073ffffffffffffffffffffffffffffffffffffffff168152602001600081525090565b6000813590506106ab81610c07565b92915050565b6000813590506106c081610c1e565b92915050565b6000813590506106d581610c2e565b92915050565b6000806000606084860312156106f4576106f3610beb565b5b6000610702868287016106b1565b93505060206107138682870161069c565b9250506040610724868287016106c6565b9150509250925092565b60006020828403121561074457610743610beb565b5b6000610752848285016106c6565b91505092915050565b6000806040838503121561077257610771610beb565b5b6000610780858286016106c6565b9250506020610791858286016106c6565b9150509250929050565b6107a481610b04565b82525050565b6107b381610aa9565b82525050565b6107c281610a97565b82525050565b6107d181610abb565b82525050565b6107e081610b16565b82525050565b6107ef81610b28565b82525050565b6000610802600083610977565b915061080d82610bf0565b600082019050919050565b61082181610afa565b82525050565b6000610832826107f5565b9150819050919050565b600060208201905061085160008301846107b9565b92915050565b600060208201905061086c60008301846107aa565b92915050565b600060608201905061088760008301866107b9565b610894602083018561079b565b6108a160408301846107e6565b949350505050565b60006060820190506108be60008301866107b9565b6108cb60208301856107b9565b6108d86040830184610818565b949350505050565b600060c0820190506108f560008301896107b9565b61090260208301886107d7565b61090f6040830187610818565b61091c6060830186610818565b61092960808301856107c8565b61093660a08301846107c8565b979650505050505050565b600060208201905061095660008301846107c8565b92915050565b60006020820190506109716000830184610818565b92915050565b600081905092915050565b600061098d82610afa565b915061099883610afa565b9250827fffffffffffffffffffffffffffffffffffffffffffffffffffffffffffffffff038211156109cd576109cc610b5e565b5b828201905092915050565b60006109e382610afa565b91506109ee83610afa565b9250826109fe576109fd610b8d565b5b828204905092915050565b6000610a1482610afa565b9150610a1f83610afa565b9250817fffffffffffffffffffffffffffffffffffffffffffffffffffffffffffffffff0483118215151615610a5857610a57610b5e565b5b828202905092915050565b6000610a6e82610afa565b9150610a7983610afa565b925082821015610a8c57610a8b610b5e565b5b828203905092915050565b6000610aa282610ada565b9050919050565b6000610ab482610ada565b9050919050565b60008115159050919050565b6000819050610ad582610bf3565b919050565b600073ffffffffffffffffffffffffffffffffffffffff82169050919050565b6000819050919050565b6000610b0f82610b3a565b9050919050565b6000610b2182610ac7565b9050919050565b6000610b3382610afa565b9050919050565b6000610b4582610b4c565b9050919050565b6000610b5782610ada565b9050919050565b7f4e487b7100000000000000000000000000000000000000000000000000000000600052601160045260246000fd5b7f4e487b7100000000000000000000000000000000000000000000000000000000600052601260045260246000fd5b7f4e487b7100000000000000000000000000000000000000000000000000000000600052602160045260246000fd5b600080fd5b50565b60048110610c0457610c03610bbc565b5b50565b610c1081610a97565b8114610c1b57600080fd5b50565b60048110610c2b57600080fd5b50565b610c3781610afa565b8114610c4257600080fd5b5056fea264697066735822122036ec09d0b5b6f7c919398a86b6d0e2ebf5de7a8deafd9a191994c2d465b8544764736f6c63430008070033",
  "immutableReferences": {},
  "source": "//SPDX-License-Identifier: UNLICENSED\n\npragma solidity ^0.8.0;\n\ncontract Eduvate {\n    address payable public systemAddress;\n\n    mapping(uint => mapping (uint => uint)) queryVotes;\n    mapping(uint => QueryBountyReward) queryIdBountyMapping;\n\n    struct QueryBountyReward{\n        address userAddress;\n        uint queryReward;\n    } QueryBountyReward sample;\n\n    constructor(){\n        systemAddress =payable(address( msg.sender));\n    }\n\n    event queryTransaction(\n        address userAddress,\n        address systemAddress,\n        uint queryId\n    );\n\n    event commentTransaction(\n        address userAddress,\n        address systemAddress,\n        uint queryId,\n        uint commentId\n    );\n\n    event studentPerformanceEvent(\n        address studentAddress,\n        Performance performance,\n        uint courseValue,\n        uint returnValue,\n        bool isPossible,\n        bool transferDone\n    );\n\n    modifier onlySystemModifier {\n        require(msg.sender == systemAddress);\n        _;\n    }\n\n    //    Add Equal to condition later as gas fees\n    modifier minimumBalanceModifier {\n        require(msg.sender.balance > msg.value);\n        _;\n    }\n\n    enum Performance{NONE,BAD,GOOD,BEST} Performance studentPerformance;\n\n    //Add modifier for only system\n    //Once done can't be done again - To check how to do so later\n    //Modifier for balance\n    function studentCourseGrade(Performance stuPerformance, address studentAddress, uint courseValue) public payable onlySystemModifier returns (bool) {\n        bool isPossible = false;\n        bool transferDone = false;\n        uint valueToReturn = ((uint(stuPerformance) - 1) * courseValue)/10;\n        if(address(this).balance >= valueToReturn){\n            isPossible = true;\n            if(valueToReturn !=0){\n                (bool success, ) = (studentAddress).call{value:valueToReturn}(\"\");\n                transferDone = success;\n            }\n            else\n                transferDone = false;\n        }\n        emit studentPerformanceEvent(studentAddress, stuPerformance, courseValue, valueToReturn, isPossible, transferDone);\n        return transferDone;\n    }\n    //To @return string or address somehow\n    function getSystemAddress() public view returns(address){\n        return systemAddress;\n    }\n\n\n    //    Modifier for balance\n    //    Used for making bounty queries\n    function registerQuery(uint queryId) public payable minimumBalanceModifier returns (bool){\n        emit queryTransaction(msg.sender, address(this), msg.value);\n        (bool success, ) = address(this).call{value:msg.value}(\"\");\n        QueryBountyReward memory currentQuery;\n        currentQuery.userAddress = msg.sender;\n        currentQuery.queryReward = msg.value;\n        queryIdBountyMapping[queryId] = currentQuery;\n        return success;\n    }\n    //    function queryRewardFunction(uint queryId, QueryBountyReward [] comments, uint size) public onlySystemModifier{\n    //\n    //    }\n\n    function getBalance() public view returns (uint){\n        return address(this).balance;\n    }\n\n    function updateVote(uint queryId, uint commentId) public{\n        queryVotes[queryId][commentId] = queryVotes[queryId][commentId]+1;\n    }\n\n    function addComment(uint queryId, uint commentId) public{\n        queryVotes[queryId][commentId] = 0;\n    }\n\n    function closeContract() public{\n        selfdestruct(systemAddress);\n    }\n\n    function register() public payable returns(bool) {\n        emit queryTransaction(msg.sender, systemAddress, 0);\n        return true;\n    }\n}\n",
  "sourcePath": "/Users/malikaditya/Code/Blockchain/Eduvate/chain/contracts/Eduvate.sol",
  "compiler": {
    "name": "solc",
    "version": "0.8.7+commit.e28d00a7.Emscripten.clang"
  },
  "schemaVersion": "3.4.10",
  "updatedAt": "2022-11-09T21:22:02.010Z",
  "networkType": "ethereum",
  "devdoc": {
    "kind": "dev",
    "methods": {},
    "version": 1
  },
  "userdoc": {
    "kind": "user",
    "methods": {},
    "version": 1
  }
}