{
  "contractName": "TruffleTutorial",
  "abi": [
    {
      "inputs": [],
      "stateMutability": "nonpayable",
      "type": "constructor"
    },
    {
      "inputs": [],
      "name": "message",
      "outputs": [
        {
          "internalType": "string",
          "name": "",
          "type": "string"
        }
      ],
      "stateMutability": "view",
      "type": "function",
      "constant": true
    },
    {
      "inputs": [],
      "name": "owner",
      "outputs": [
        {
          "internalType": "address",
          "name": "",
          "type": "address"
        }
      ],
      "stateMutability": "view",
      "type": "function",
      "constant": true
    },
    {
      "inputs": [
        {
          "internalType": "string",
          "name": "_message",
          "type": "string"
        }
      ],
      "name": "setMessage",
      "outputs": [
        {
          "internalType": "string",
          "name": "",
          "type": "string"
        }
      ],
      "stateMutability": "nonpayable",
      "type": "function"
    }
  ],
  "bytecode": "0x6080604052336000806101000a81548173ffffffffffffffffffffffffffffffffffffffff021916908373ffffffffffffffffffffffffffffffffffffffff16021790555034801561005057600080fd5b506040518060400160405280600c81526020017f48656c6c6f20576f726c642100000000000000000000000000000000000000008152506001908051906020019061009c9291906100a2565b506101a6565b8280546100ae90610145565b90600052602060002090601f0160209004810192826100d05760008555610117565b82601f106100e957805160ff1916838001178555610117565b82800160010185558215610117579182015b828111156101165782518255916020019190600101906100fb565b5b5090506101249190610128565b5090565b5b80821115610141576000816000905550600101610129565b5090565b6000600282049050600182168061015d57607f821691505b6020821081141561017157610170610177565b5b50919050565b7f4e487b7100000000000000000000000000000000000000000000000000000000600052602260045260246000fd5b610720806101b56000396000f3fe608060405234801561001057600080fd5b50600436106100415760003560e01c8063368b8772146100465780638da5cb5b14610076578063e21f37ce14610094575b600080fd5b610060600480360381019061005b91906103be565b6100b2565b60405161006d919061048d565b60405180910390f35b61007e6101f9565b60405161008b9190610472565b60405180910390f35b61009c61021d565b6040516100a9919061048d565b60405180910390f35b606060008054906101000a900473ffffffffffffffffffffffffffffffffffffffff1673ffffffffffffffffffffffffffffffffffffffff163373ffffffffffffffffffffffffffffffffffffffff1614610142576040517f08c379a0000000000000000000000000000000000000000000000000000000008152600401610139906104af565b60405180910390fd5b600082511161015057600080fd5b81600190805190602001906101669291906102ab565b5060018054610174906105b5565b80601f01602080910402602001604051908101604052809291908181526020018280546101a0906105b5565b80156101ed5780601f106101c2576101008083540402835291602001916101ed565b820191906000526020600020905b8154815290600101906020018083116101d057829003601f168201915b50505050509050919050565b60008054906101000a900473ffffffffffffffffffffffffffffffffffffffff1681565b6001805461022a906105b5565b80601f0160208091040260200160405190810160405280929190818152602001828054610256906105b5565b80156102a35780601f10610278576101008083540402835291602001916102a3565b820191906000526020600020905b81548152906001019060200180831161028657829003601f168201915b505050505081565b8280546102b7906105b5565b90600052602060002090601f0160209004810192826102d95760008555610320565b82601f106102f257805160ff1916838001178555610320565b82800160010185558215610320579182015b8281111561031f578251825591602001919060010190610304565b5b50905061032d9190610331565b5090565b5b8082111561034a576000816000905550600101610332565b5090565b600061036161035c846104f4565b6104cf565b90508281526020810184848401111561037d5761037c61067b565b5b610388848285610573565b509392505050565b600082601f8301126103a5576103a4610676565b5b81356103b584826020860161034e565b91505092915050565b6000602082840312156103d4576103d3610685565b5b600082013567ffffffffffffffff8111156103f2576103f1610680565b5b6103fe84828501610390565b91505092915050565b61041081610541565b82525050565b600061042182610525565b61042b8185610530565b935061043b818560208601610582565b6104448161068a565b840191505092915050565b600061045c603383610530565b91506104678261069b565b604082019050919050565b60006020820190506104876000830184610407565b92915050565b600060208201905081810360008301526104a78184610416565b905092915050565b600060208201905081810360008301526104c88161044f565b9050919050565b60006104d96104ea565b90506104e582826105e7565b919050565b6000604051905090565b600067ffffffffffffffff82111561050f5761050e610647565b5b6105188261068a565b9050602081019050919050565b600081519050919050565b600082825260208201905092915050565b600061054c82610553565b9050919050565b600073ffffffffffffffffffffffffffffffffffffffff82169050919050565b82818337600083830152505050565b60005b838110156105a0578082015181840152602081019050610585565b838111156105af576000848401525b50505050565b600060028204905060018216806105cd57607f821691505b602082108114156105e1576105e0610618565b5b50919050565b6105f08261068a565b810181811067ffffffffffffffff8211171561060f5761060e610647565b5b80604052505050565b7f4e487b7100000000000000000000000000000000000000000000000000000000600052602260045260246000fd5b7f4e487b7100000000000000000000000000000000000000000000000000000000600052604160045260246000fd5b600080fd5b600080fd5b600080fd5b600080fd5b6000601f19601f8301169050919050565b7f546869732066756e6374696f6e206973207265737472696374656420746f207460008201527f686520636f6e74726163742773206f776e65720000000000000000000000000060208201525056fea2646970667358221220a8ec10ba15b53237034712fca28d5cec09883dbf10b12441112600f3fe5b686164736f6c63430008070033",
  "immutableReferences": {},
  "source": "// SPDX-License-Identifier: GPL-3.0\n\npragma solidity >=0.4.22 <0.9.0;\n\ncontract TruffleTutorial {\n  address public owner = msg.sender;\n  string public message;\n\n  // this function runs when the contract is deployed\n  constructor() public {\n    // set initial message\n    message = \"Hello World!\";\n  }\n\n  modifier ownerOnly() {\n    require(\n      msg.sender == owner,\n      \"This function is restricted to the contract's owner\"\n    );\n    _;\n  }\n\n  // function that only contract owner can run, to set a new message\n  function setMessage(string memory _message)\n  public\n  ownerOnly\n  returns(string memory)\n  {\n    // message must not be empty\n    require(bytes(_message).length > 0);\n\n    // set new message\n    message = _message;\n    return message;\n  }\n}\n",
  "sourcePath": "/Users/malikaditya/Code/Blockchain/Eduvate/chain/contracts/TruffleTutorial.sol",
  "compiler": {
    "name": "solc",
    "version": "0.8.7+commit.e28d00a7.Emscripten.clang"
  },
  "schemaVersion": "3.4.10",
  "updatedAt": "2022-11-08T19:22:45.362Z",
  "networkType": "ethereum",
  "devdoc": {
    "kind": "dev",
    "methods": {},
    "version": 1
  },
  "userdoc": {
    "kind": "user",
    "methods": {},
    "version": 1
  }
}